{
  "_format": "hh-sol-artifact-1",
  "contractName": "Domains",
  "sourceName": "contracts/Domains.sol",
  "abi": [
    {
      "inputs": [
        {
          "internalType": "string",
          "name": "_tld",
          "type": "string"
        }
      ],
      "stateMutability": "payable",
      "type": "constructor"
    },
    {
      "inputs": [],
      "name": "AlreadyRegistered",
      "type": "error"
    },
    {
      "inputs": [
        {
          "internalType": "string",
          "name": "name",
          "type": "string"
        }
      ],
      "name": "InvalidName",
      "type": "error"
    },
    {
      "inputs": [],
      "name": "Unauthorized",
      "type": "error"
    },
    {
      "anonymous": false,
      "inputs": [
        {
          "indexed": true,
          "internalType": "address",
          "name": "owner",
          "type": "address"
        },
        {
          "indexed": true,
          "internalType": "address",
          "name": "approved",
          "type": "address"
        },
        {
          "indexed": true,
          "internalType": "uint256",
          "name": "tokenId",
          "type": "uint256"
        }
      ],
      "name": "Approval",
      "type": "event"
    },
    {
      "anonymous": false,
      "inputs": [
        {
          "indexed": true,
          "internalType": "address",
          "name": "owner",
          "type": "address"
        },
        {
          "indexed": true,
          "internalType": "address",
          "name": "operator",
          "type": "address"
        },
        {
          "indexed": false,
          "internalType": "bool",
          "name": "approved",
          "type": "bool"
        }
      ],
      "name": "ApprovalForAll",
      "type": "event"
    },
    {
      "anonymous": false,
      "inputs": [
        {
          "indexed": true,
          "internalType": "address",
          "name": "from",
          "type": "address"
        },
        {
          "indexed": true,
          "internalType": "address",
          "name": "to",
          "type": "address"
        },
        {
          "indexed": true,
          "internalType": "uint256",
          "name": "tokenId",
          "type": "uint256"
        }
      ],
      "name": "Transfer",
      "type": "event"
    },
    {
      "inputs": [
        {
          "internalType": "address",
          "name": "to",
          "type": "address"
        },
        {
          "internalType": "uint256",
          "name": "tokenId",
          "type": "uint256"
        }
      ],
      "name": "approve",
      "outputs": [],
      "stateMutability": "nonpayable",
      "type": "function"
    },
    {
      "inputs": [
        {
          "internalType": "address",
          "name": "owner",
          "type": "address"
        }
      ],
      "name": "balanceOf",
      "outputs": [
        {
          "internalType": "uint256",
          "name": "",
          "type": "uint256"
        }
      ],
      "stateMutability": "view",
      "type": "function"
    },
    {
      "inputs": [
        {
          "internalType": "string",
          "name": "",
          "type": "string"
        }
      ],
      "name": "domains",
      "outputs": [
        {
          "internalType": "address",
          "name": "",
          "type": "address"
        }
      ],
      "stateMutability": "view",
      "type": "function"
    },
    {
      "inputs": [
        {
          "internalType": "string",
          "name": "name",
          "type": "string"
        }
      ],
      "name": "getAddress",
      "outputs": [
        {
          "internalType": "address",
          "name": "",
          "type": "address"
        }
      ],
      "stateMutability": "view",
      "type": "function"
    },
    {
      "inputs": [],
      "name": "getAllNames",
      "outputs": [
        {
          "internalType": "string[]",
          "name": "",
          "type": "string[]"
        }
      ],
      "stateMutability": "view",
      "type": "function"
    },
    {
      "inputs": [
        {
          "internalType": "uint256",
          "name": "tokenId",
          "type": "uint256"
        }
      ],
      "name": "getApproved",
      "outputs": [
        {
          "internalType": "address",
          "name": "",
          "type": "address"
        }
      ],
      "stateMutability": "view",
      "type": "function"
    },
    {
      "inputs": [
        {
          "internalType": "address",
          "name": "owner",
          "type": "address"
        },
        {
          "internalType": "address",
          "name": "operator",
          "type": "address"
        }
      ],
      "name": "isApprovedForAll",
      "outputs": [
        {
          "internalType": "bool",
          "name": "",
          "type": "bool"
        }
      ],
      "stateMutability": "view",
      "type": "function"
    },
    {
      "inputs": [],
      "name": "isOwner",
      "outputs": [
        {
          "internalType": "bool",
          "name": "",
          "type": "bool"
        }
      ],
      "stateMutability": "view",
      "type": "function"
    },
    {
      "inputs": [],
      "name": "name",
      "outputs": [
        {
          "internalType": "string",
          "name": "",
          "type": "string"
        }
      ],
      "stateMutability": "view",
      "type": "function"
    },
    {
      "inputs": [
        {
          "internalType": "uint256",
          "name": "",
          "type": "uint256"
        }
      ],
      "name": "names",
      "outputs": [
        {
          "internalType": "string",
          "name": "",
          "type": "string"
        }
      ],
      "stateMutability": "view",
      "type": "function"
    },
    {
      "inputs": [],
      "name": "owner",
      "outputs": [
        {
          "internalType": "address payable",
          "name": "",
          "type": "address"
        }
      ],
      "stateMutability": "view",
      "type": "function"
    },
    {
      "inputs": [
        {
          "internalType": "uint256",
          "name": "tokenId",
          "type": "uint256"
        }
      ],
      "name": "ownerOf",
      "outputs": [
        {
          "internalType": "address",
          "name": "",
          "type": "address"
        }
      ],
      "stateMutability": "view",
      "type": "function"
    },
    {
      "inputs": [
        {
          "internalType": "string",
          "name": "name",
          "type": "string"
        }
      ],
      "name": "price",
      "outputs": [
        {
          "internalType": "uint256",
          "name": "",
          "type": "uint256"
        }
      ],
      "stateMutability": "pure",
      "type": "function"
    },
    {
      "inputs": [
        {
          "internalType": "string",
          "name": "name",
          "type": "string"
        }
      ],
      "name": "register",
      "outputs": [],
      "stateMutability": "payable",
      "type": "function"
    },
    {
      "inputs": [
        {
          "internalType": "address",
          "name": "from",
          "type": "address"
        },
        {
          "internalType": "address",
          "name": "to",
          "type": "address"
        },
        {
          "internalType": "uint256",
          "name": "tokenId",
          "type": "uint256"
        }
      ],
      "name": "safeTransferFrom",
      "outputs": [],
      "stateMutability": "nonpayable",
      "type": "function"
    },
    {
      "inputs": [
        {
          "internalType": "address",
          "name": "from",
          "type": "address"
        },
        {
          "internalType": "address",
          "name": "to",
          "type": "address"
        },
        {
          "internalType": "uint256",
          "name": "tokenId",
          "type": "uint256"
        },
        {
          "internalType": "bytes",
          "name": "_data",
          "type": "bytes"
        }
      ],
      "name": "safeTransferFrom",
      "outputs": [],
      "stateMutability": "nonpayable",
      "type": "function"
    },
    {
      "inputs": [
        {
          "internalType": "address",
          "name": "operator",
          "type": "address"
        },
        {
          "internalType": "bool",
          "name": "approved",
          "type": "bool"
        }
      ],
      "name": "setApprovalForAll",
      "outputs": [],
      "stateMutability": "nonpayable",
      "type": "function"
    },
    {
      "inputs": [
        {
          "internalType": "bytes4",
          "name": "interfaceId",
          "type": "bytes4"
        }
      ],
      "name": "supportsInterface",
      "outputs": [
        {
          "internalType": "bool",
          "name": "",
          "type": "bool"
        }
      ],
      "stateMutability": "view",
      "type": "function"
    },
    {
      "inputs": [],
      "name": "symbol",
      "outputs": [
        {
          "internalType": "string",
          "name": "",
          "type": "string"
        }
      ],
      "stateMutability": "view",
      "type": "function"
    },
    {
      "inputs": [],
      "name": "tld",
      "outputs": [
        {
          "internalType": "string",
          "name": "",
          "type": "string"
        }
      ],
      "stateMutability": "view",
      "type": "function"
    },
    {
      "inputs": [
        {
          "internalType": "uint256",
          "name": "tokenId",
          "type": "uint256"
        }
      ],
      "name": "tokenURI",
      "outputs": [
        {
          "internalType": "string",
          "name": "",
          "type": "string"
        }
      ],
      "stateMutability": "view",
      "type": "function"
    },
    {
      "inputs": [
        {
          "internalType": "address",
          "name": "from",
          "type": "address"
        },
        {
          "internalType": "address",
          "name": "to",
          "type": "address"
        },
        {
          "internalType": "uint256",
          "name": "tokenId",
          "type": "uint256"
        }
      ],
      "name": "transferFrom",
      "outputs": [],
      "stateMutability": "nonpayable",
      "type": "function"
    },
    {
      "inputs": [
        {
          "internalType": "string",
          "name": "name",
          "type": "string"
        }
      ],
      "name": "valid",
      "outputs": [
        {
          "internalType": "bool",
          "name": "",
          "type": "bool"
        }
      ],
      "stateMutability": "pure",
      "type": "function"
    },
    {
      "inputs": [],
      "name": "withdraw",
      "outputs": [],
      "stateMutability": "nonpayable",
      "type": "function"
    }
  ],
  "bytecode": "0x6080604052604051806108a0016040528061086b815260200162004e9e61086b9139600a908051906020019062000038929190620002c8565b506040518060400160405280600d81526020017f3c2f746578743e3c2f7376673e00000000000000000000000000000000000000815250600b908051906020019062000086929190620002c8565b5060405162005709380380620057098339818101604052810190620000ac919062000515565b6040518060400160405280601681526020017f4c6f73205461636f73204e616d652053657276696365000000000000000000008152506040518060400160405280600481526020017f4c544e5300000000000000000000000000000000000000000000000000000000815250816000908051906020019062000130929190620002c8565b50806001908051906020019062000149929190620002c8565b505050806008908051906020019062000164929190620002c8565b5033600960006101000a81548173ffffffffffffffffffffffffffffffffffffffff021916908373ffffffffffffffffffffffffffffffffffffffff160217905550620001f26040518060400160405280601881526020017f2573206e616d652073657276696365206465706c6f796564000000000000000081525082620001f960201b620017b31760201c565b5062000663565b6200029b828260405160240162000212929190620005c3565b6040516020818303038152906040527f4b5c4277000000000000000000000000000000000000000000000000000000007bffffffffffffffffffffffffffffffffffffffffffffffffffffffff19166020820180517bffffffffffffffffffffffffffffffffffffffffffffffffffffffff83818316178352505050506200029f60201b60201c565b5050565b60008151905060006a636f6e736f6c652e6c6f679050602083016000808483855afa5050505050565b828054620002d6906200062d565b90600052602060002090601f016020900481019282620002fa576000855562000346565b82601f106200031557805160ff191683800117855562000346565b8280016001018555821562000346579182015b828111156200034557825182559160200191906001019062000328565b5b50905062000355919062000359565b5090565b5b80821115620003745760008160009055506001016200035a565b5090565b6000604051905090565b600080fd5b600080fd5b600080fd5b600080fd5b6000601f19601f8301169050919050565b7f4e487b7100000000000000000000000000000000000000000000000000000000600052604160045260246000fd5b620003e18262000396565b810181811067ffffffffffffffff82111715620004035762000402620003a7565b5b80604052505050565b60006200041862000378565b9050620004268282620003d6565b919050565b600067ffffffffffffffff821115620004495762000448620003a7565b5b620004548262000396565b9050602081019050919050565b60005b838110156200048157808201518184015260208101905062000464565b8381111562000491576000848401525b50505050565b6000620004ae620004a8846200042b565b6200040c565b905082815260208101848484011115620004cd57620004cc62000391565b5b620004da84828562000461565b509392505050565b600082601f830112620004fa57620004f96200038c565b5b81516200050c84826020860162000497565b91505092915050565b6000602082840312156200052e576200052d62000382565b5b600082015167ffffffffffffffff8111156200054f576200054e62000387565b5b6200055d84828501620004e2565b91505092915050565b600081519050919050565b600082825260208201905092915050565b60006200058f8262000566565b6200059b818562000571565b9350620005ad81856020860162000461565b620005b88162000396565b840191505092915050565b60006040820190508181036000830152620005df818562000582565b90508181036020830152620005f5818462000582565b90509392505050565b7f4e487b7100000000000000000000000000000000000000000000000000000000600052602260045260246000fd5b600060028204905060018216806200064657607f821691505b602082108114156200065d576200065c620005fe565b5b50919050565b61482b80620006736000396000f3fe60806040526004361061014b5760003560e01c80638da5cb5b116100b6578063bf40fac11161006f578063bf40fac1146104b6578063c87b56dd146104f3578063e985e9c514610530578063f2c298be1461056d578063fb825e5f14610589578063fe2c6198146105b45761014b565b80638da5cb5b146103a65780638f32d59b146103d157806395d89b41146103fc5780639791c09714610427578063a22cb46514610464578063b88d4fde1461048d5761014b565b80632d551432116101085780632d551432146102845780633ccfd60b146102af57806342842e0e146102c65780634622ab03146102ef5780636352211e1461032c57806370a08231146103695761014b565b806301ffc9a71461015057806306fdde031461018d578063081812fc146101b8578063095ea7b3146101f557806323b872dd1461021e5780632644923514610247575b600080fd5b34801561015c57600080fd5b5061017760048036038101906101729190612c98565b6105f1565b6040516101849190612ce0565b60405180910390f35b34801561019957600080fd5b506101a26106d3565b6040516101af9190612d94565b60405180910390f35b3480156101c457600080fd5b506101df60048036038101906101da9190612dec565b610765565b6040516101ec9190612e5a565b60405180910390f35b34801561020157600080fd5b5061021c60048036038101906102179190612ea1565b6107ea565b005b34801561022a57600080fd5b5061024560048036038101906102409190612ee1565b610902565b005b34801561025357600080fd5b5061026e60048036038101906102699190613069565b610962565b60405161027b9190612e5a565b60405180910390f35b34801561029057600080fd5b506102996109ab565b6040516102a69190612d94565b60405180910390f35b3480156102bb57600080fd5b506102c4610a39565b005b3480156102d257600080fd5b506102ed60048036038101906102e89190612ee1565b610aff565b005b3480156102fb57600080fd5b5061031660048036038101906103119190612dec565b610b1f565b6040516103239190612d94565b60405180910390f35b34801561033857600080fd5b50610353600480360381019061034e9190612dec565b610bbf565b6040516103609190612e5a565b60405180910390f35b34801561037557600080fd5b50610390600480360381019061038b91906130b2565b610c71565b60405161039d91906130ee565b60405180910390f35b3480156103b257600080fd5b506103bb610d29565b6040516103c8919061312a565b60405180910390f35b3480156103dd57600080fd5b506103e6610d4f565b6040516103f39190612ce0565b60405180910390f35b34801561040857600080fd5b50610411610da7565b60405161041e9190612d94565b60405180910390f35b34801561043357600080fd5b5061044e600480360381019061044991906131a5565b610e39565b60405161045b9190612ce0565b60405180910390f35b34801561047057600080fd5b5061048b6004803603810190610486919061321e565b610ea6565b005b34801561049957600080fd5b506104b460048036038101906104af91906132ff565b610ebc565b005b3480156104c257600080fd5b506104dd60048036038101906104d891906131a5565b610f1e565b6040516104ea9190612e5a565b60405180910390f35b3480156104ff57600080fd5b5061051a60048036038101906105159190612dec565b610f69565b6040516105279190612d94565b60405180910390f35b34801561053c57600080fd5b5061055760048036038101906105529190613382565b6110bb565b6040516105649190612ce0565b60405180910390f35b610587600480360381019061058291906131a5565b61114f565b005b34801561059557600080fd5b5061059e61154c565b6040516105ab91906134ce565b60405180910390f35b3480156105c057600080fd5b506105db60048036038101906105d691906131a5565b61170d565b6040516105e891906130ee565b60405180910390f35b60007f80ac58cd000000000000000000000000000000000000000000000000000000007bffffffffffffffffffffffffffffffffffffffffffffffffffffffff1916827bffffffffffffffffffffffffffffffffffffffffffffffffffffffff191614806106bc57507f5b5e139f000000000000000000000000000000000000000000000000000000007bffffffffffffffffffffffffffffffffffffffffffffffffffffffff1916827bffffffffffffffffffffffffffffffffffffffffffffffffffffffff1916145b806106cc57506106cb8261184f565b5b9050919050565b6060600080546106e29061351f565b80601f016020809104026020016040519081016040528092919081815260200182805461070e9061351f565b801561075b5780601f106107305761010080835404028352916020019161075b565b820191906000526020600020905b81548152906001019060200180831161073e57829003601f168201915b5050505050905090565b6000610770826118b9565b6107af576040517f08c379a00000000000000000000000000000000000000000000000000000000081526004016107a6906135c3565b60405180910390fd5b6004600083815260200190815260200160002060009054906101000a900473ffffffffffffffffffffffffffffffffffffffff169050919050565b60006107f582610bbf565b90508073ffffffffffffffffffffffffffffffffffffffff168373ffffffffffffffffffffffffffffffffffffffff161415610866576040517f08c379a000000000000000000000000000000000000000000000000000000000815260040161085d90613655565b60405180910390fd5b8073ffffffffffffffffffffffffffffffffffffffff16610885611925565b73ffffffffffffffffffffffffffffffffffffffff1614806108b457506108b3816108ae611925565b6110bb565b5b6108f3576040517f08c379a00000000000000000000000000000000000000000000000000000000081526004016108ea906136e7565b60405180910390fd5b6108fd838361192d565b505050565b61091361090d611925565b826119e6565b610952576040517f08c379a000000000000000000000000000000000000000000000000000000000815260040161094990613779565b60405180910390fd5b61095d838383611ac4565b505050565b600c818051602081018201805184825260208301602085012081835280955050505050506000915054906101000a900473ffffffffffffffffffffffffffffffffffffffff1681565b600880546109b89061351f565b80601f01602080910402602001604051908101604052809291908181526020018280546109e49061351f565b8015610a315780601f10610a0657610100808354040283529160200191610a31565b820191906000526020600020905b815481529060010190602001808311610a1457829003601f168201915b505050505081565b610a41610d4f565b610a4a57600080fd5b600047905060003373ffffffffffffffffffffffffffffffffffffffff1682604051610a75906137ca565b60006040518083038185875af1925050503d8060008114610ab2576040519150601f19603f3d011682016040523d82523d6000602084013e610ab7565b606091505b5050905080610afb576040517f08c379a0000000000000000000000000000000000000000000000000000000008152600401610af29061382b565b60405180910390fd5b5050565b610b1a83838360405180602001604052806000815250610ebc565b505050565b600d6020528060005260406000206000915090508054610b3e9061351f565b80601f0160208091040260200160405190810160405280929190818152602001828054610b6a9061351f565b8015610bb75780601f10610b8c57610100808354040283529160200191610bb7565b820191906000526020600020905b815481529060010190602001808311610b9a57829003601f168201915b505050505081565b6000806002600084815260200190815260200160002060009054906101000a900473ffffffffffffffffffffffffffffffffffffffff169050600073ffffffffffffffffffffffffffffffffffffffff168173ffffffffffffffffffffffffffffffffffffffff161415610c68576040517f08c379a0000000000000000000000000000000000000000000000000000000008152600401610c5f906138bd565b60405180910390fd5b80915050919050565b60008073ffffffffffffffffffffffffffffffffffffffff168273ffffffffffffffffffffffffffffffffffffffff161415610ce2576040517f08c379a0000000000000000000000000000000000000000000000000000000008152600401610cd99061394f565b60405180910390fd5b600360008373ffffffffffffffffffffffffffffffffffffffff1673ffffffffffffffffffffffffffffffffffffffff168152602001908152602001600020549050919050565b600960009054906101000a900473ffffffffffffffffffffffffffffffffffffffff1681565b6000600960009054906101000a900473ffffffffffffffffffffffffffffffffffffffff1673ffffffffffffffffffffffffffffffffffffffff163373ffffffffffffffffffffffffffffffffffffffff1614905090565b606060018054610db69061351f565b80601f0160208091040260200160405190810160405280929190818152602001828054610de29061351f565b8015610e2f5780601f10610e0457610100808354040283529160200191610e2f565b820191906000526020600020905b815481529060010190602001808311610e1257829003601f168201915b5050505050905090565b600080610e8984848080601f016020809104026020016040519081016040528093929190818152602001838380828437600081840152601f19601f82011690508083019250505050505050611d2b565b905060038110158015610e9d5750600a8111155b91505092915050565b610eb8610eb1611925565b8383611ee0565b5050565b610ecd610ec7611925565b836119e6565b610f0c576040517f08c379a0000000000000000000000000000000000000000000000000000000008152600401610f0390613779565b60405180910390fd5b610f188484848461204d565b50505050565b6000600c8383604051610f3292919061399f565b908152602001604051809103902060009054906101000a900473ffffffffffffffffffffffffffffffffffffffff16905092915050565b6060610f74826118b9565b610fb3576040517f08c379a0000000000000000000000000000000000000000000000000000000008152600401610faa90613a2a565b60405180910390fd5b6000600660008481526020019081526020016000208054610fd39061351f565b80601f0160208091040260200160405190810160405280929190818152602001828054610fff9061351f565b801561104c5780601f106110215761010080835404028352916020019161104c565b820191906000526020600020905b81548152906001019060200180831161102f57829003601f168201915b50505050509050600061105d6120a9565b90506000815114156110735781925050506110b6565b6000825111156110a8578082604051602001611090929190613a7b565b604051602081830303815290604052925050506110b6565b6110b1846120c0565b925050505b919050565b6000600560008473ffffffffffffffffffffffffffffffffffffffff1673ffffffffffffffffffffffffffffffffffffffff16815260200190815260200160002060008373ffffffffffffffffffffffffffffffffffffffff1673ffffffffffffffffffffffffffffffffffffffff16815260200190815260200160002060009054906101000a900460ff16905092915050565b600073ffffffffffffffffffffffffffffffffffffffff16600c838360405161117992919061399f565b908152602001604051809103902060009054906101000a900473ffffffffffffffffffffffffffffffffffffffff1673ffffffffffffffffffffffffffffffffffffffff16146111f5576040517f3a81d6fc00000000000000000000000000000000000000000000000000000000815260040160405180910390fd5b6111ff8282610e39565b6112425781816040517f7f19f48d000000000000000000000000000000000000000000000000000000008152600401611239929190613acc565b60405180910390fd5b600061124e838361170d565b905080341015611293576040517f08c379a000000000000000000000000000000000000000000000000000000000815260040161128a90613b3c565b60405180910390fd5b6000838360086040516020016112ab93929190613c3c565b60405160208183030381529060405290506000600a82600b6040516020016112d593929190613c6d565b604051602081830303815290604052905060006112f26007612167565b9050600061134387878080601f016020809104026020016040519081016040528093929190818152602001838380828437600081840152601f19601f82011690508083019250505050505050611d2b565b9050600061135082612175565b90506114446040518060600160405280602181526020016147d56021913989898080601f016020809104026020016040519081016040528093929190818152602001838380828437600081840152601f19601f82011690508083019250505050505050600880546113c09061351f565b80601f01602080910402602001604051908101604052809291908181526020018280546113ec9061351f565b80156114395780601f1061140e57610100808354040283529160200191611439565b820191906000526020600020905b81548152906001019060200180831161141c57829003601f168201915b5050505050866122d6565b600061147a8661145387612378565b8460405160200161146693929190613e1a565b604051602081830303815290604052612378565b905060008160405160200161148f9190613ec3565b60405160208183030381529060405290506114aa3386612510565b6114b4858261252e565b33600c8b8b6040516114c792919061399f565b908152602001604051809103902060006101000a81548173ffffffffffffffffffffffffffffffffffffffff021916908373ffffffffffffffffffffffffffffffffffffffff1602179055508989600d60008881526020019081526020016000209190611535929190612b03565b5061154060076125a2565b50505050505050505050565b606061156f6040518060600160405280602a815260200161476b602a91396125b8565b600061157b6007612167565b67ffffffffffffffff81111561159457611593612f3e565b5b6040519080825280602002602001820160405280156115c757816020015b60608152602001906001900390816115b25790505b50905060005b6115d76007612167565b81101561170557600d600082815260200190815260200160002080546115fc9061351f565b80601f01602080910402602001604051908101604052809291908181526020018280546116289061351f565b80156116755780601f1061164a57610100808354040283529160200191611675565b820191906000526020600020905b81548152906001019060200180831161165857829003601f168201915b505050505082828151811061168d5761168c613ee5565b5b60200260200101819052506116f26040518060400160405280601781526020017f4e616d6520666f7220746f6b656e202564206973202573000000000000000000815250828484815181106116e5576116e4613ee5565b5b6020026020010151612651565b80806116fd90613f43565b9150506115cd565b508091505090565b60008061175d84848080601f016020809104026020016040519081016040528093929190818152602001838380828437600081840152601f19601f82011690508083019250505050505050611d2b565b90506000811161176c57600080fd5b600381141561178657670429d069189e00009150506117ad565b60048114156117a0576702c68af0bb1400009150506117ad565b67016345785d8a00009150505b92915050565b61184b82826040516024016117c9929190613f8c565b6040516020818303038152906040527f4b5c4277000000000000000000000000000000000000000000000000000000007bffffffffffffffffffffffffffffffffffffffffffffffffffffffff19166020820180517bffffffffffffffffffffffffffffffffffffffffffffffffffffffff83818316178352505050506126f0565b5050565b60007f01ffc9a7000000000000000000000000000000000000000000000000000000007bffffffffffffffffffffffffffffffffffffffffffffffffffffffff1916827bffffffffffffffffffffffffffffffffffffffffffffffffffffffff1916149050919050565b60008073ffffffffffffffffffffffffffffffffffffffff166002600084815260200190815260200160002060009054906101000a900473ffffffffffffffffffffffffffffffffffffffff1673ffffffffffffffffffffffffffffffffffffffff1614159050919050565b600033905090565b816004600083815260200190815260200160002060006101000a81548173ffffffffffffffffffffffffffffffffffffffff021916908373ffffffffffffffffffffffffffffffffffffffff160217905550808273ffffffffffffffffffffffffffffffffffffffff166119a083610bbf565b73ffffffffffffffffffffffffffffffffffffffff167f8c5be1e5ebec7d5bd14f71427d1e84f3dd0314c0f7b2291e5b200ac8c7c3b92560405160405180910390a45050565b60006119f1826118b9565b611a30576040517f08c379a0000000000000000000000000000000000000000000000000000000008152600401611a2790614035565b60405180910390fd5b6000611a3b83610bbf565b90508073ffffffffffffffffffffffffffffffffffffffff168473ffffffffffffffffffffffffffffffffffffffff161480611aaa57508373ffffffffffffffffffffffffffffffffffffffff16611a9284610765565b73ffffffffffffffffffffffffffffffffffffffff16145b80611abb5750611aba81856110bb565b5b91505092915050565b8273ffffffffffffffffffffffffffffffffffffffff16611ae482610bbf565b73ffffffffffffffffffffffffffffffffffffffff1614611b3a576040517f08c379a0000000000000000000000000000000000000000000000000000000008152600401611b31906140c7565b60405180910390fd5b600073ffffffffffffffffffffffffffffffffffffffff168273ffffffffffffffffffffffffffffffffffffffff161415611baa576040517f08c379a0000000000000000000000000000000000000000000000000000000008152600401611ba190614159565b60405180910390fd5b611bb5838383612719565b611bc060008261192d565b6001600360008573ffffffffffffffffffffffffffffffffffffffff1673ffffffffffffffffffffffffffffffffffffffff1681526020019081526020016000206000828254611c109190614179565b925050819055506001600360008473ffffffffffffffffffffffffffffffffffffffff1673ffffffffffffffffffffffffffffffffffffffff1681526020019081526020016000206000828254611c6791906141ad565b92505081905550816002600083815260200190815260200160002060006101000a81548173ffffffffffffffffffffffffffffffffffffffff021916908373ffffffffffffffffffffffffffffffffffffffff160217905550808273ffffffffffffffffffffffffffffffffffffffff168473ffffffffffffffffffffffffffffffffffffffff167fddf252ad1be2c89b69c2b068fc378daa952ba7f163c4a11628f55a4df523b3ef60405160405180910390a4611d2683838361271e565b505050565b60008060008084519050600092505b80821015611ed5576000858381518110611d5757611d56613ee5565b5b602001015160f81c60f81b9050608060f81b817effffffffffffffffffffffffffffffffffffffffffffffffffffffffffffff19161015611da657600183611d9f91906141ad565b9250611ec1565b60e060f81b817effffffffffffffffffffffffffffffffffffffffffffffffffffffffffffff19161015611de857600283611de191906141ad565b9250611ec0565b60f060f81b817effffffffffffffffffffffffffffffffffffffffffffffffffffffffffffff19161015611e2a57600383611e2391906141ad565b9250611ebf565b60f8801b817effffffffffffffffffffffffffffffffffffffffffffffffffffffffffffff19161015611e6b57600483611e6491906141ad565b9250611ebe565b60fc60f81b817effffffffffffffffffffffffffffffffffffffffffffffffffffffffffffff19161015611ead57600583611ea691906141ad565b9250611ebd565b600683611eba91906141ad565b92505b5b5b5b5b508280611ecd90613f43565b935050611d3a565b829350505050919050565b8173ffffffffffffffffffffffffffffffffffffffff168373ffffffffffffffffffffffffffffffffffffffff161415611f4f576040517f08c379a0000000000000000000000000000000000000000000000000000000008152600401611f469061424f565b60405180910390fd5b80600560008573ffffffffffffffffffffffffffffffffffffffff1673ffffffffffffffffffffffffffffffffffffffff16815260200190815260200160002060008473ffffffffffffffffffffffffffffffffffffffff1673ffffffffffffffffffffffffffffffffffffffff16815260200190815260200160002060006101000a81548160ff0219169083151502179055508173ffffffffffffffffffffffffffffffffffffffff168373ffffffffffffffffffffffffffffffffffffffff167f17307eab39ab6107e8899845ad3d59bd9653f200f220920489ca2b5937696c31836040516120409190612ce0565b60405180910390a3505050565b612058848484611ac4565b61206484848484612723565b6120a3576040517f08c379a000000000000000000000000000000000000000000000000000000000815260040161209a906142e1565b60405180910390fd5b50505050565b606060405180602001604052806000815250905090565b60606120cb826118b9565b61210a576040517f08c379a000000000000000000000000000000000000000000000000000000000815260040161210190614373565b60405180910390fd5b60006121146120a9565b90506000815111612134576040518060200160405280600081525061215f565b8061213e84612175565b60405160200161214f929190613a7b565b6040516020818303038152906040525b915050919050565b600081600001549050919050565b606060008214156121bd576040518060400160405280600181526020017f300000000000000000000000000000000000000000000000000000000000000081525090506122d1565b600082905060005b600082146121ef5780806121d890613f43565b915050600a826121e891906143c2565b91506121c5565b60008167ffffffffffffffff81111561220b5761220a612f3e565b5b6040519080825280601f01601f19166020018201604052801561223d5781602001600182028036833780820191505090505b5090505b600085146122ca576001826122569190614179565b9150600a8561226591906143f3565b603061227191906141ad565b60f81b81838151811061228757612286613ee5565b5b60200101907effffffffffffffffffffffffffffffffffffffffffffffffffffffffffffff1916908160001a905350600a856122c391906143c2565b9450612241565b8093505050505b919050565b612372848484846040516024016122f09493929190614424565b6040516020818303038152906040527f9fd009f5000000000000000000000000000000000000000000000000000000007bffffffffffffffffffffffffffffffffffffffffffffffffffffffff19166020820180517bffffffffffffffffffffffffffffffffffffffffffffffffffffffff83818316178352505050506126f0565b50505050565b606060008251905060008114156123a1576040518060200160405280600081525091505061250b565b600060036002836123b291906141ad565b6123bc91906143c2565b60046123c8919061447e565b905060006020826123d991906141ad565b67ffffffffffffffff8111156123f2576123f1612f3e565b5b6040519080825280601f01601f1916602001820160405280156124245781602001600182028036833780820191505090505b5090506000604051806060016040528060408152602001614795604091399050600181016020830160005b868110156124c85760038101905062ffffff818a015116603f8160121c168401518060081b905060ff603f83600c1c1686015116810190508060081b905060ff603f8360061c1686015116810190508060081b905060ff603f831686015116810190508060e01b9050808452600484019350505061244f565b5060038606600181146124e257600281146124f2576124fd565b613d3d60f01b60028303526124fd565b603d60f81b60018303525b508484525050819450505050505b919050565b61252a8282604051806020016040528060008152506128ab565b5050565b612537826118b9565b612576576040517f08c379a000000000000000000000000000000000000000000000000000000000815260040161256d9061454a565b60405180910390fd5b8060066000848152602001908152602001600020908051906020019061259d929190612b89565b505050565b6001816000016000828254019250508190555050565b61264e816040516024016125cc9190612d94565b6040516020818303038152906040527f41304fac000000000000000000000000000000000000000000000000000000007bffffffffffffffffffffffffffffffffffffffffffffffffffffffff19166020820180517bffffffffffffffffffffffffffffffffffffffffffffffffffffffff83818316178352505050506126f0565b50565b6126eb8383836040516024016126699392919061456a565b6040516020818303038152906040527fa3f5c739000000000000000000000000000000000000000000000000000000007bffffffffffffffffffffffffffffffffffffffffffffffffffffffff19166020820180517bffffffffffffffffffffffffffffffffffffffffffffffffffffffff83818316178352505050506126f0565b505050565b60008151905060006a636f6e736f6c652e6c6f679050602083016000808483855afa5050505050565b505050565b505050565b60006127448473ffffffffffffffffffffffffffffffffffffffff16612906565b1561289e578373ffffffffffffffffffffffffffffffffffffffff1663150b7a0261276d611925565b8786866040518563ffffffff1660e01b815260040161278f9493929190614604565b6020604051808303816000875af19250505080156127cb57506040513d601f19601f820116820180604052508101906127c89190614665565b60015b61284e573d80600081146127fb576040519150601f19603f3d011682016040523d82523d6000602084013e612800565b606091505b50600081511415612846576040517f08c379a000000000000000000000000000000000000000000000000000000000815260040161283d906142e1565b60405180910390fd5b805181602001fd5b63150b7a0260e01b7bffffffffffffffffffffffffffffffffffffffffffffffffffffffff1916817bffffffffffffffffffffffffffffffffffffffffffffffffffffffff1916149150506128a3565b600190505b949350505050565b6128b58383612929565b6128c26000848484612723565b612901576040517f08c379a00000000000000000000000000000000000000000000000000000000081526004016128f8906142e1565b60405180910390fd5b505050565b6000808273ffffffffffffffffffffffffffffffffffffffff163b119050919050565b600073ffffffffffffffffffffffffffffffffffffffff168273ffffffffffffffffffffffffffffffffffffffff161415612999576040517f08c379a0000000000000000000000000000000000000000000000000000000008152600401612990906146de565b60405180910390fd5b6129a2816118b9565b156129e2576040517f08c379a00000000000000000000000000000000000000000000000000000000081526004016129d99061474a565b60405180910390fd5b6129ee60008383612719565b6001600360008473ffffffffffffffffffffffffffffffffffffffff1673ffffffffffffffffffffffffffffffffffffffff1681526020019081526020016000206000828254612a3e91906141ad565b92505081905550816002600083815260200190815260200160002060006101000a81548173ffffffffffffffffffffffffffffffffffffffff021916908373ffffffffffffffffffffffffffffffffffffffff160217905550808273ffffffffffffffffffffffffffffffffffffffff16600073ffffffffffffffffffffffffffffffffffffffff167fddf252ad1be2c89b69c2b068fc378daa952ba7f163c4a11628f55a4df523b3ef60405160405180910390a4612aff6000838361271e565b5050565b828054612b0f9061351f565b90600052602060002090601f016020900481019282612b315760008555612b78565b82601f10612b4a57803560ff1916838001178555612b78565b82800160010185558215612b78579182015b82811115612b77578235825591602001919060010190612b5c565b5b509050612b859190612c0f565b5090565b828054612b959061351f565b90600052602060002090601f016020900481019282612bb75760008555612bfe565b82601f10612bd057805160ff1916838001178555612bfe565b82800160010185558215612bfe579182015b82811115612bfd578251825591602001919060010190612be2565b5b509050612c0b9190612c0f565b5090565b5b80821115612c28576000816000905550600101612c10565b5090565b6000604051905090565b600080fd5b600080fd5b60007fffffffff0000000000000000000000000000000000000000000000000000000082169050919050565b612c7581612c40565b8114612c8057600080fd5b50565b600081359050612c9281612c6c565b92915050565b600060208284031215612cae57612cad612c36565b5b6000612cbc84828501612c83565b91505092915050565b60008115159050919050565b612cda81612cc5565b82525050565b6000602082019050612cf56000830184612cd1565b92915050565b600081519050919050565b600082825260208201905092915050565b60005b83811015612d35578082015181840152602081019050612d1a565b83811115612d44576000848401525b50505050565b6000601f19601f8301169050919050565b6000612d6682612cfb565b612d708185612d06565b9350612d80818560208601612d17565b612d8981612d4a565b840191505092915050565b60006020820190508181036000830152612dae8184612d5b565b905092915050565b6000819050919050565b612dc981612db6565b8114612dd457600080fd5b50565b600081359050612de681612dc0565b92915050565b600060208284031215612e0257612e01612c36565b5b6000612e1084828501612dd7565b91505092915050565b600073ffffffffffffffffffffffffffffffffffffffff82169050919050565b6000612e4482612e19565b9050919050565b612e5481612e39565b82525050565b6000602082019050612e6f6000830184612e4b565b92915050565b612e7e81612e39565b8114612e8957600080fd5b50565b600081359050612e9b81612e75565b92915050565b60008060408385031215612eb857612eb7612c36565b5b6000612ec685828601612e8c565b9250506020612ed785828601612dd7565b9150509250929050565b600080600060608486031215612efa57612ef9612c36565b5b6000612f0886828701612e8c565b9350506020612f1986828701612e8c565b9250506040612f2a86828701612dd7565b9150509250925092565b600080fd5b600080fd5b7f4e487b7100000000000000000000000000000000000000000000000000000000600052604160045260246000fd5b612f7682612d4a565b810181811067ffffffffffffffff82111715612f9557612f94612f3e565b5b80604052505050565b6000612fa8612c2c565b9050612fb48282612f6d565b919050565b600067ffffffffffffffff821115612fd457612fd3612f3e565b5b612fdd82612d4a565b9050602081019050919050565b82818337600083830152505050565b600061300c61300784612fb9565b612f9e565b90508281526020810184848401111561302857613027612f39565b5b613033848285612fea565b509392505050565b600082601f8301126130505761304f612f34565b5b8135613060848260208601612ff9565b91505092915050565b60006020828403121561307f5761307e612c36565b5b600082013567ffffffffffffffff81111561309d5761309c612c3b565b5b6130a98482850161303b565b91505092915050565b6000602082840312156130c8576130c7612c36565b5b60006130d684828501612e8c565b91505092915050565b6130e881612db6565b82525050565b600060208201905061310360008301846130df565b92915050565b600061311482612e19565b9050919050565b61312481613109565b82525050565b600060208201905061313f600083018461311b565b92915050565b600080fd5b600080fd5b60008083601f84011261316557613164612f34565b5b8235905067ffffffffffffffff81111561318257613181613145565b5b60208301915083600182028301111561319e5761319d61314a565b5b9250929050565b600080602083850312156131bc576131bb612c36565b5b600083013567ffffffffffffffff8111156131da576131d9612c3b565b5b6131e68582860161314f565b92509250509250929050565b6131fb81612cc5565b811461320657600080fd5b50565b600081359050613218816131f2565b92915050565b6000806040838503121561323557613234612c36565b5b600061324385828601612e8c565b925050602061325485828601613209565b9150509250929050565b600067ffffffffffffffff82111561327957613278612f3e565b5b61328282612d4a565b9050602081019050919050565b60006132a261329d8461325e565b612f9e565b9050828152602081018484840111156132be576132bd612f39565b5b6132c9848285612fea565b509392505050565b600082601f8301126132e6576132e5612f34565b5b81356132f684826020860161328f565b91505092915050565b6000806000806080858703121561331957613318612c36565b5b600061332787828801612e8c565b945050602061333887828801612e8c565b935050604061334987828801612dd7565b925050606085013567ffffffffffffffff81111561336a57613369612c3b565b5b613376878288016132d1565b91505092959194509250565b6000806040838503121561339957613398612c36565b5b60006133a785828601612e8c565b92505060206133b885828601612e8c565b9150509250929050565b600081519050919050565b600082825260208201905092915050565b6000819050602082019050919050565b600082825260208201905092915050565b600061340a82612cfb565b61341481856133ee565b9350613424818560208601612d17565b61342d81612d4a565b840191505092915050565b600061344483836133ff565b905092915050565b6000602082019050919050565b6000613464826133c2565b61346e81856133cd565b935083602082028501613480856133de565b8060005b858110156134bc578484038952815161349d8582613438565b94506134a88361344c565b925060208a01995050600181019050613484565b50829750879550505050505092915050565b600060208201905081810360008301526134e88184613459565b905092915050565b7f4e487b7100000000000000000000000000000000000000000000000000000000600052602260045260246000fd5b6000600282049050600182168061353757607f821691505b6020821081141561354b5761354a6134f0565b5b50919050565b7f4552433732313a20617070726f76656420717565727920666f72206e6f6e657860008201527f697374656e7420746f6b656e0000000000000000000000000000000000000000602082015250565b60006135ad602c83612d06565b91506135b882613551565b604082019050919050565b600060208201905081810360008301526135dc816135a0565b9050919050565b7f4552433732313a20617070726f76616c20746f2063757272656e74206f776e6560008201527f7200000000000000000000000000000000000000000000000000000000000000602082015250565b600061363f602183612d06565b915061364a826135e3565b604082019050919050565b6000602082019050818103600083015261366e81613632565b9050919050565b7f4552433732313a20617070726f76652063616c6c6572206973206e6f74206f7760008201527f6e6572206e6f7220617070726f76656420666f7220616c6c0000000000000000602082015250565b60006136d1603883612d06565b91506136dc82613675565b604082019050919050565b60006020820190508181036000830152613700816136c4565b9050919050565b7f4552433732313a207472616e736665722063616c6c6572206973206e6f74206f60008201527f776e6572206e6f7220617070726f766564000000000000000000000000000000602082015250565b6000613763603183612d06565b915061376e82613707565b604082019050919050565b6000602082019050818103600083015261379281613756565b9050919050565b600081905092915050565b50565b60006137b4600083613799565b91506137bf826137a4565b600082019050919050565b60006137d5826137a7565b9150819050919050565b7f4661696c656420746f207769746864726177204d617469630000000000000000600082015250565b6000613815601883612d06565b9150613820826137df565b602082019050919050565b6000602082019050818103600083015261384481613808565b9050919050565b7f4552433732313a206f776e657220717565727920666f72206e6f6e657869737460008201527f656e7420746f6b656e0000000000000000000000000000000000000000000000602082015250565b60006138a7602983612d06565b91506138b28261384b565b604082019050919050565b600060208201905081810360008301526138d68161389a565b9050919050565b7f4552433732313a2062616c616e636520717565727920666f7220746865207a6560008201527f726f206164647265737300000000000000000000000000000000000000000000602082015250565b6000613939602a83612d06565b9150613944826138dd565b604082019050919050565b600060208201905081810360008301526139688161392c565b9050919050565b600081905092915050565b6000613986838561396f565b9350613993838584612fea565b82840190509392505050565b60006139ac82848661397a565b91508190509392505050565b7f45524337323155524953746f726167653a2055524920717565727920666f722060008201527f6e6f6e6578697374656e7420746f6b656e000000000000000000000000000000602082015250565b6000613a14603183612d06565b9150613a1f826139b8565b604082019050919050565b60006020820190508181036000830152613a4381613a07565b9050919050565b6000613a5582612cfb565b613a5f818561396f565b9350613a6f818560208601612d17565b80840191505092915050565b6000613a878285613a4a565b9150613a938284613a4a565b91508190509392505050565b6000613aab8385612d06565b9350613ab8838584612fea565b613ac183612d4a565b840190509392505050565b60006020820190508181036000830152613ae7818486613a9f565b90509392505050565b7f596f75206469646e27742073656e6420656e6f756768204d4154494300000000600082015250565b6000613b26601c83612d06565b9150613b3182613af0565b602082019050919050565b60006020820190508181036000830152613b5581613b19565b9050919050565b7f2e00000000000000000000000000000000000000000000000000000000000000600082015250565b6000613b9260018361396f565b9150613b9d82613b5c565b600182019050919050565b60008190508160005260206000209050919050565b60008154613bca8161351f565b613bd4818661396f565b94506001821660008114613bef5760018114613c0057613c33565b60ff19831686528186019350613c33565b613c0985613ba8565b60005b83811015613c2b57815481890152600182019150602081019050613c0c565b838801955050505b50505092915050565b6000613c4982858761397a565b9150613c5482613b85565b9150613c608284613bbd565b9150819050949350505050565b6000613c798286613bbd565b9150613c858285613a4a565b9150613c918284613bbd565b9150819050949350505050565b7f7b226e616d65223a202200000000000000000000000000000000000000000000600082015250565b6000613cd4600a8361396f565b9150613cdf82613c9e565b600a82019050919050565b7f222c20226465736372697074696f6e223a20224120646f6d61696e206f6e207460008201527f6865205461636f73206e616d6520736572766963652e222c2022696d6167652260208201527f3a2022646174613a696d6167652f7376672b786d6c3b6261736536342c000000604082015250565b6000613d6c605d8361396f565b9150613d7782613cea565b605d82019050919050565b7f222c226c656e677468223a220000000000000000000000000000000000000000600082015250565b6000613db8600c8361396f565b9150613dc382613d82565b600c82019050919050565b7f227d000000000000000000000000000000000000000000000000000000000000600082015250565b6000613e0460028361396f565b9150613e0f82613dce565b600282019050919050565b6000613e2582613cc7565b9150613e318286613a4a565b9150613e3c82613d5f565b9150613e488285613a4a565b9150613e5382613dab565b9150613e5f8284613a4a565b9150613e6a82613df7565b9150819050949350505050565b7f646174613a6170706c69636174696f6e2f6a736f6e3b6261736536342c000000600082015250565b6000613ead601d8361396f565b9150613eb882613e77565b601d82019050919050565b6000613ece82613ea0565b9150613eda8284613a4a565b915081905092915050565b7f4e487b7100000000000000000000000000000000000000000000000000000000600052603260045260246000fd5b7f4e487b7100000000000000000000000000000000000000000000000000000000600052601160045260246000fd5b6000613f4e82612db6565b91507fffffffffffffffffffffffffffffffffffffffffffffffffffffffffffffffff821415613f8157613f80613f14565b5b600182019050919050565b60006040820190508181036000830152613fa68185612d5b565b90508181036020830152613fba8184612d5b565b90509392505050565b7f4552433732313a206f70657261746f7220717565727920666f72206e6f6e657860008201527f697374656e7420746f6b656e0000000000000000000000000000000000000000602082015250565b600061401f602c83612d06565b915061402a82613fc3565b604082019050919050565b6000602082019050818103600083015261404e81614012565b9050919050565b7f4552433732313a207472616e736665722066726f6d20696e636f72726563742060008201527f6f776e6572000000000000000000000000000000000000000000000000000000602082015250565b60006140b1602583612d06565b91506140bc82614055565b604082019050919050565b600060208201905081810360008301526140e0816140a4565b9050919050565b7f4552433732313a207472616e7366657220746f20746865207a65726f2061646460008201527f7265737300000000000000000000000000000000000000000000000000000000602082015250565b6000614143602483612d06565b915061414e826140e7565b604082019050919050565b6000602082019050818103600083015261417281614136565b9050919050565b600061418482612db6565b915061418f83612db6565b9250828210156141a2576141a1613f14565b5b828203905092915050565b60006141b882612db6565b91506141c383612db6565b9250827fffffffffffffffffffffffffffffffffffffffffffffffffffffffffffffffff038211156141f8576141f7613f14565b5b828201905092915050565b7f4552433732313a20617070726f766520746f2063616c6c657200000000000000600082015250565b6000614239601983612d06565b915061424482614203565b602082019050919050565b600060208201905081810360008301526142688161422c565b9050919050565b7f4552433732313a207472616e7366657220746f206e6f6e20455243373231526560008201527f63656976657220696d706c656d656e7465720000000000000000000000000000602082015250565b60006142cb603283612d06565b91506142d68261426f565b604082019050919050565b600060208201905081810360008301526142fa816142be565b9050919050565b7f4552433732314d657461646174613a2055524920717565727920666f72206e6f60008201527f6e6578697374656e7420746f6b656e0000000000000000000000000000000000602082015250565b600061435d602f83612d06565b915061436882614301565b604082019050919050565b6000602082019050818103600083015261438c81614350565b9050919050565b7f4e487b7100000000000000000000000000000000000000000000000000000000600052601260045260246000fd5b60006143cd82612db6565b91506143d883612db6565b9250826143e8576143e7614393565b5b828204905092915050565b60006143fe82612db6565b915061440983612db6565b92508261441957614418614393565b5b828206905092915050565b6000608082019050818103600083015261443e8187612d5b565b905081810360208301526144528186612d5b565b905081810360408301526144668185612d5b565b905061447560608301846130df565b95945050505050565b600061448982612db6565b915061449483612db6565b9250817fffffffffffffffffffffffffffffffffffffffffffffffffffffffffffffffff04831182151516156144cd576144cc613f14565b5b828202905092915050565b7f45524337323155524953746f726167653a2055524920736574206f66206e6f6e60008201527f6578697374656e7420746f6b656e000000000000000000000000000000000000602082015250565b6000614534602e83612d06565b915061453f826144d8565b604082019050919050565b6000602082019050818103600083015261456381614527565b9050919050565b600060608201905081810360008301526145848186612d5b565b905061459360208301856130df565b81810360408301526145a58184612d5b565b9050949350505050565b600081519050919050565b600082825260208201905092915050565b60006145d6826145af565b6145e081856145ba565b93506145f0818560208601612d17565b6145f981612d4a565b840191505092915050565b60006080820190506146196000830187612e4b565b6146266020830186612e4b565b61463360408301856130df565b818103606083015261464581846145cb565b905095945050505050565b60008151905061465f81612c6c565b92915050565b60006020828403121561467b5761467a612c36565b5b600061468984828501614650565b91505092915050565b7f4552433732313a206d696e7420746f20746865207a65726f2061646472657373600082015250565b60006146c8602083612d06565b91506146d382614692565b602082019050919050565b600060208201905081810360008301526146f7816146bb565b9050919050565b7f4552433732313a20746f6b656e20616c7265616479206d696e74656400000000600082015250565b6000614734601c83612d06565b915061473f826146fe565b602082019050919050565b6000602082019050818103600083015261476381614727565b905091905056fe47657474696e6720616c6c20646f6d61696e206e616d65732066726f6d2074686520636f6e74726163744142434445464748494a4b4c4d4e4f505152535455565758595a6162636465666768696a6b6c6d6e6f707172737475767778797a303132333435363738392b2f5265696773746572696e672025732e2573207769746820746f6b656e4964202564a2646970667358221220439c2443fb09cffd0ceeab525c8235d73b1e6ff00eb8612b1bce7ac58bca398064736f6c634300080a00333c73766720786d6c6e733d22687474703a2f2f7777772e77332e6f72672f323030302f737667222077696474683d2232373022206865696768743d22323730222066696c6c3d226e6f6e65223e3c706174682066696c6c3d2275726c282342292220643d224d302030683237307632373048307a222f3e3c646566733e3c66696c7465722069643d22412220636f6c6f722d696e746572706f6c6174696f6e2d66696c746572733d2273524742222066696c746572556e6974733d227573657253706163654f6e55736522206865696768743d22323730222077696474683d22323730223e3c666544726f70536861646f772064783d2230222064793d22312220737464446576696174696f6e3d22322220666c6f6f642d6f7061636974793d222e323235222077696474683d223230302522206865696768743d2232303025222f3e3c2f66696c7465723e3c2f646566733e3c7061746820643d224d37322e3836332034322e393439632d2e3636382d2e3338372d312e3432362d2e35392d322e3139372d2e3539732d312e3532392e3230342d322e3139372e35396c2d31302e30383120362e3033322d362e383520332e3933342d31302e30383120362e303332632d2e3636382e3338372d312e3432362e35392d322e3139372e3539732d312e3532392d2e3230342d322e3139372d2e35396c2d382e3031332d342e37323161342e353220342e35322030203020312d312e3538392d312e363136632d2e3338342d2e3636352d2e3539342d312e3431382d2e3630382d322e313837762d392e3331632d2e3031332d2e3737352e3138352d312e3533382e3537322d322e32303861342e323520342e323520302030203120312e3632352d312e3539356c372e3838342d342e3539632e3636382d2e33383720312e3432362d2e353920322e3139372d2e353973312e3532392e32303420322e3139372e35396c372e38383420342e353961342e353220342e353220302030203120312e35383920312e363136632e3338342e3636352e35393420312e3431382e36303820322e31383776362e3033326c362e38352d342e303635762d362e303332632e3031332d2e3737352d2e3138352d312e3533382d2e3537322d322e32303861342e323520342e32352030203020302d312e3632352d312e3539354c34312e3435362032342e3539632d2e3636382d2e3338372d312e3432362d2e35392d322e3139372d2e3539732d312e3532392e3230342d322e3139372e35396c2d31342e38363420382e36353561342e323520342e32352030203020302d312e36323520312e353935632d2e3338372e36372d2e35383520312e3433342d2e35373220322e3230387631372e343431632d2e3031332e3737352e31383520312e3533382e35373220322e32303861342e323520342e323520302030203020312e36323520312e3539356c31342e38363420382e363535632e3636382e33383720312e3432362e353920322e3139372e353973312e3532392d2e32303420322e3139372d2e35396c31302e3038312d352e39303120362e38352d342e3036352031302e3038312d352e393031632e3636382d2e33383720312e3432362d2e353920322e3139372d2e353973312e3532392e32303420322e3139372e35396c372e38383420342e353961342e353220342e353220302030203120312e35383920312e363136632e3338342e3636352e35393420312e3431382e36303820322e31383776392e333131632e3031332e3737352d2e31383520312e3533382d2e35373220322e32303861342e323520342e32352030203020312d312e36323520312e3539356c2d372e38383420342e373231632d2e3636382e3338372d312e3432362e35392d322e3139372e3539732d312e3532392d2e3230342d322e3139372d2e35396c2d372e3838342d342e353961342e353220342e35322030203020312d312e3538392d312e363136632d2e3338352d2e3636352d2e3539342d312e3431382d2e3630382d322e313837762d362e3033326c2d362e383520342e30363576362e303332632d2e3031332e3737352e31383520312e3533382e35373220322e32303861342e323520342e323520302030203020312e36323520312e3539356c31342e38363420382e363535632e3636382e33383720312e3432362e353920322e3139372e353973312e3532392d2e32303420322e3139372d2e35396c31342e3836342d382e363535632e3635372d2e33393420312e3230342d2e393520312e3538392d312e363136732e3539342d312e3431382e3630392d322e3138375635352e353338632e3031332d2e3737352d2e3138352d312e3533382d2e3537322d322e32303861342e323520342e32352030203020302d312e3632352d312e3539356c2d31342e3939332d382e3738367a222066696c6c3d2223666666222f3e3c646566733e3c6c696e6561724772616469656e742069643d2242222078313d2230222079313d2230222078323d22323730222079323d2232373022206772616469656e74556e6974733d227573657253706163654f6e557365223e3c73746f702073746f702d636f6c6f723d2223636235656565222f3e3c73746f70206f66667365743d2231222073746f702d636f6c6f723d2223306364376534222073746f702d6f7061636974793d222e3939222f3e3c2f6c696e6561724772616469656e743e3c2f646566733e3c7465787420783d2233322e352220793d223233312220666f6e742d73697a653d223237222066696c6c3d2223666666222066696c7465723d2275726c282341292220666f6e742d66616d696c793d22506c7573204a616b617274612053616e732c44656a6156752053616e732c4e6f746f20436f6c6f7220456d6f6a692c4170706c6520436f6c6f7220456d6f6a692c73616e732d73657269662220666f6e742d7765696768743d22626f6c64223e",
  "linkReferences": {},
  "deployedLinkReferences": {}
}